:100000000C942A000C945F070C9434000C94340078
:100010000C9434000C9434000C9434000C94340090
:100020000C9434000C9434000C9434000C94340080
:100030000C9434000C9434000C9434000C94340070
:100040000C9434000C9434000C9434000C94340060
:100050000C94340011241FBECFE5D8E0DEBFCDBF25
:100060000E9432070C947B070C940000DF93CF931F
:10007000CDB7DEB7A7E2B0E0E7E2F0E080818F77AE
:100080008C93A7E2B0E0E7E2F0E0808180648C939B
:10009000A7E2B0E0E7E2F0E080818F7D8C93A6E2FA
:1000A000B0E0E6E2F0E0808180688C93A6E2B0E008
:1000B000E6E2F0E0808180628C93A6E2B0E0E6E2C6
:1000C000F0E08081877F8C93A6E2B0E0E6E2F0E08A
:1000D00080818B7F8C93A6E2B0E0E6E2F0E0808145
:1000E00082608C93A6E2B0E0E6E2F0E0808181607D
:1000F0008C93A0E5B0E0E0E5F0E080818F778C9311
:10010000A0E5B0E0E0E5F0E0808180648C93A0E5BC
:10011000B0E0E0E5F0E080818F7D8C93CF91DF91BE
:100120000895DF93CF9300D000D0CDB7DEB78C8396
:100130001A821982E7E2F0E08081982F907E8C810C
:10014000892B8B83E7E2F0E08B818083E6E2F0E0AD
:10015000808182958F70882F90E0817090700097D9
:10016000A9F3A6E2B0E0E6E2F0E0808180618C9342
:10017000E4E2F0E08081882F90E09A838983E5E2D1
:10018000F0E08081882F90E0982F88279C0189815A
:100190009A81822B932B9A83898389819A810F90EC
:1001A0000F900F900F90CF91DF910895DF93CF9331
:1001B00000D000D000D0CDB7DEB78B836C838B81AD
:1001C0008695869586958A838B81877089838A81B7
:1001D000282F30E03E832D838D819E8181309105D3
:1001E00009F443C02D813E81223031052CF48D81EC
:1001F0009E81009771F0BCC02D813E812230310577
:1002000009F45FC08D819E818330910509F485C01A
:10021000AFC08C818823A9F4AAE3B0E0EAE3F0E060
:100220008081482F8981282F30E081E090E0022EE4
:1002300002C0880F991F0A94E2F7809584238C935B
:1002400097C0AAE3B0E0EAE3F0E08081482F89811B
:10025000282F30E081E090E0022E02C0880F991F25
:100260000A94E2F7842B8C9383C08C818823A9F4B1
:10027000A7E3B0E0E7E3F0E08081482F8981282FF1
:1002800030E081E090E0022E02C0880F991F0A94AE
:10029000E2F7809584238C936BC0A7E3B0E0E7E39B
:1002A000F0E08081482F8981282F30E081E090E0C4
:1002B000022E02C0880F991F0A94E2F7842B8C93B8
:1002C00057C08C818823A9F4A4E3B0E0E4E3F0E014
:1002D0008081482F8981282F30E081E090E0022E34
:1002E00002C0880F991F0A94E2F7809584238C93AB
:1002F0003FC0A4E3B0E0E4E3F0E08081482F8981CF
:10030000282F30E081E090E0022E02C0880F991F74
:100310000A94E2F7842B8C932BC08C818823A9F458
:10032000A1E3B0E0E1E3F0E08081482F8981282F4C
:1003300030E081E090E0022E02C0880F991F0A94FD
:10034000E2F7809584238C9313C0A1E3B0E0E1E34E
:10035000F0E08081482F8981282F30E081E090E013
:10036000022E02C0880F991F0A94E2F7842B8C9307
:1003700026960FB6F894DEBF0FBECDBFCF91DF91AA
:100380000895DF93CF9300D000D000D0CDB7DEB773
:100390008B836C838B818695869586958A838B81EA
:1003A000877089838A81282F30E03E832D838D8159
:1003B0009E818130910509F443C02D813E81223018
:1003C00031052CF48D819E81009771F0BCC02D8188
:1003D0003E812230310509F45FC08D819E818330DA
:1003E000910509F485C0AFC08C818823A9F4ABE3E3
:1003F000B0E0EBE3F0E08081482F8981282F30E0E6
:1004000081E090E0022E02C0880F991F0A94E2F763
:10041000809584238C9397C0ABE3B0E0EBE3F0E0EE
:100420008081482F8981282F30E081E090E0022EE2
:1004300002C0880F991F0A94E2F7842B8C9383C023
:100440008C818823A9F4A8E3B0E0E8E3F0E08081A0
:10045000482F8981282F30E081E090E0022E02C0F1
:10046000880F991F0A94E2F7809584238C936BC0C0
:10047000A8E3B0E0E8E3F0E08081482F8981282FED
:1004800030E081E090E0022E02C0880F991F0A94AC
:10049000E2F7842B8C9357C08C818823A9F4A5E3C1
:1004A000B0E0E5E3F0E08081482F8981282F30E03B
:1004B00081E090E0022E02C0880F991F0A94E2F7B3
:1004C000809584238C933FC0A5E3B0E0E5E3F0E0A2
:1004D0008081482F8981282F30E081E090E0022E32
:1004E00002C0880F991F0A94E2F7842B8C932BC0CB
:1004F0008C818823A9F4A2E3B0E0E2E3F0E08081FC
:10050000482F8981282F30E081E090E0022E02C040
:10051000880F991F0A94E2F7809584238C9313C067
:10052000A2E3B0E0E2E3F0E08081482F8981282F48
:1005300030E081E090E0022E02C0880F991F0A94FB
:10054000E2F7842B8C9326960FB6F894DEBF0FBE8D
:10055000CDBFCF91DF910895DF93CF93CDB7DEB7B5
:1005600027970FB6F894DEBF0FBECDBF8B838B816C
:100570008695869586958A838B81877089838A8103
:10058000282F30E03E832D834D815E81413051051F
:1005900049F18D819E818230910534F42D813E8117
:1005A0002115310561F057C04D815E814230510502
:1005B00061F18D819E8183309105D1F14CC0E9E3D9
:1005C000F0E08081282F30E08981882F90E0A90118
:1005D00002C0559547958A95E2F7CA01582F517088
:1005E0005C833AC0E6E3F0E08081282F30E0898127
:1005F000882F90E0A90102C0559547958A95E2F7AA
:10060000CA01582F51705C8327C0E3E3F0E080817A
:10061000282F30E08981882F90E0A90102C05595EC
:1006200047958A95E2F7CA01582F51705C8314C030
:10063000E0E3F0E08081282F30E08981882F90E08E
:10064000A90102C0559547958A95E2F7CA01582F2E
:1006500051705C8301C002C08C818F838F8127968B
:100660000FB6F894DEBF0FBECDBFCF91DF910895D6
:10067000DF93CF93CDB7DEB7AFE5B0E0EFE5F0E0C5
:10068000808180688C93ABE5B0E0EBE5F0E08081A1
:1006900080648C93A5E5B0E0E5E5F0E080818160C1
:1006A0008C93A5E5B0E0E5E5F0E0808182608C9375
:1006B0008AE160E00E94D6008AE161E00E94C10107
:1006C000CF91DF910895DF93CF93CDB7DEB7AFE53C
:1006D000B0E0EFE5F0E0808180688C93ABE5B0E0BE
:1006E000EBE5F0E0808180688C93A5E5B0E0E5E57E
:1006F000F0E080818B7F8C93A5E5B0E0E5E5F0E04C
:100700008081877F8C938BE160E00E94D6008BE133
:1007100061E00E94C101CF91DF910895DF93CF93F3
:10072000CDB7DEB780E161E00E94D60081E161E0F3
:100730000E94D60082E161E00E94D60083E161E080
:100740000E94D60084E161E00E94D60085E161E06C
:100750000E94D60086E161E00E94D60087E161E058
:100760000E94D60088E061E00E94D60089E061E046
:100770000E94D6008AE061E00E94D6008BE061E032
:100780000E94D6008CE061E00E94D6008DE061E01E
:100790000E94D6008EE061E00E94D6008FE061E00A
:1007A0000E94D600CF91DF910895DF93CF93CDB70C
:1007B000DEB728970FB6F894DEBF0FBECDBF898392
:1007C0006A838981282F30E038872F838F8198852D
:1007D0008130910539F02F8138852230310509F4B7
:1007E0009DC137C38A81282F30E03E832D838D81C0
:1007F0009E818430910509F4CBC02D813E81253046
:100800003105ECF48D819E818130910509F45DC044
:100810002D813E81223031052CF48D819E810097FF
:1008200099F117C32D813E812230310509F46EC044
:100830008D819E818330910509F489C00AC32D8181
:100840003E812730310509F406C18D819E818830B3
:1008500091056CF42D813E812530310509F4B9C034
:100860008D819E818630910509F4D4C0F2C22D811C
:100870003E812830310509F40FC18D819E81893078
:10088000910509F42AC1E5C280E161E00E94C1013D
:1008900081E161E00E94C10182E161E00E94C10149
:1008A00083E161E00E94C10184E161E00E94C10135
:1008B00085E161E00E94C10186E160E00E94C10122
:1008C00087E161E00E94C101C4C280E160E00E9452
:1008D000C10181E161E00E94C10182E161E00E9409
:1008E000C10183E160E00E94C10184E160E00E94F7
:1008F000C10185E160E00E94C10186E160E00E94E3
:10090000C10187E161E00E94C101A3C280E161E011
:100910000E94C10181E161E00E94C10182E160E0C9
:100920000E94C10183E161E00E94C10184E161E0B4
:100930000E94C10185E160E00E94C10186E161E0A1
:100940000E94C10187E161E00E94C10182C280E191
:1009500061E00E94C10181E161E00E94C10182E188
:1009600061E00E94C10183E161E00E94C10184E174
:1009700060E00E94C10185E160E00E94C10186E162
:1009800061E00E94C10187E161E00E94C10161C292
:1009900080E160E00E94C10181E161E00E94C1014B
:1009A00082E161E00E94C10183E160E00E94C10137
:1009B00084E160E00E94C10185E161E00E94C10123
:1009C00086E161E00E94C10187E161E00E94C1010E
:1009D00040C280E161E00E94C10181E160E00E94CB
:1009E000C10182E161E00E94C10183E161E00E94F6
:1009F000C10184E160E00E94C10185E161E00E94E3
:100A0000C10186E161E00E94C10187E161E00E94CD
:100A1000C1011FC280E161E00E94C10181E160E08B
:100A20000E94C10182E161E00E94C10183E161E0B5
:100A30000E94C10184E161E00E94C10185E161E0A1
:100A40000E94C10186E161E00E94C10187E161E08D
:100A50000E94C101FEC180E161E00E94C10181E10B
:100A600061E00E94C10182E161E00E94C10183E175
:100A700060E00E94C10184E160E00E94C10185E163
:100A800060E00E94C10186E160E00E94C10187E14F
:100A900061E00E94C101DDC180E161E00E94C1010D
:100AA00081E161E00E94C10182E161E00E94C10137
:100AB00083E161E00E94C10184E161E00E94C10123
:100AC00085E161E00E94C10186E161E00E94C1010F
:100AD00087E161E00E94C101BCC180E161E00E9448
:100AE000C10181E161E00E94C10182E161E00E94F7
:100AF000C10183E161E00E94C10184E160E00E94E4
:100B0000C10185E161E00E94C10186E161E00E94CE
:100B1000C10187E161E00E94C1019BC18A81282F48
:100B200030E03C832B838B819C818430910509F4D8
:100B3000CBC02B813C8125303105ECF48B819C812D
:100B40008130910509F45DC02B813C812230310553
:100B50002CF48B819C81009799F17BC12B813C8186
:100B60002230310509F46EC08B819C818330910560
:100B700009F489C06EC12B813C812730310509F40D
:100B800006C18B819C81883091056CF42B813C815E
:100B90002530310509F4B9C08B819C8186309105DF
:100BA00009F4D4C056C12B813C812830310509F4A9
:100BB0000FC18B819C818930910509F42AC149C1FB
:100BC00088E061E00E94C10189E061E00E94C1010A
:100BD0008AE061E00E94C1018BE061E00E94C101F6
:100BE0008CE061E00E94C1018DE061E00E94C101E2
:100BF0008EE060E00E94C1018FE061E00E94C101CF
:100C000028C188E060E00E94C10189E061E00E94A3
:100C1000C1018AE061E00E94C1018BE060E00E94B6
:100C2000C1018CE060E00E94C1018DE060E00E94A3
:100C3000C1018EE060E00E94C1018FE061E00E948E
:100C4000C10107C188E061E00E94C10189E061E063
:100C50000E94C1018AE060E00E94C1018BE061E076
:100C60000E94C1018CE061E00E94C1018DE060E062
:100C70000E94C1018EE061E00E94C1018FE061E04D
:100C80000E94C101E6C088E061E00E94C10189E0E4
:100C900061E00E94C1018AE061E00E94C1018BE035
:100CA00061E00E94C1018CE060E00E94C1018DE022
:100CB00060E00E94C1018EE061E00E94C1018FE00E
:100CC00061E00E94C101C5C088E060E00E94C101EE
:100CD00089E061E00E94C1018AE061E00E94C101F7
:100CE0008BE060E00E94C1018CE060E00E94C101E5
:100CF0008DE061E00E94C1018EE061E00E94C101CF
:100D00008FE061E00E94C101A4C088E061E00E9420
:100D1000C10189E060E00E94C1018AE061E00E94B7
:100D2000C1018BE061E00E94C1018CE060E00E94A3
:100D3000C1018DE061E00E94C1018EE061E00E948E
:100D4000C1018FE061E00E94C10183C088E061E0E1
:100D50000E94C10189E060E00E94C1018AE061E077
:100D60000E94C1018BE061E00E94C1018CE061E062
:100D70000E94C1018DE061E00E94C1018EE061E04E
:100D80000E94C1018FE061E00E94C10162C088E061
:100D900061E00E94C10189E061E00E94C1018AE036
:100DA00061E00E94C1018BE060E00E94C1018CE023
:100DB00060E00E94C1018DE060E00E94C1018EE010
:100DC00060E00E94C1018FE061E00E94C10141C06A
:100DD00088E061E00E94C10189E061E00E94C101F8
:100DE0008AE061E00E94C1018BE061E00E94C101E4
:100DF0008CE061E00E94C1018DE061E00E94C101D0
:100E00008EE061E00E94C1018FE061E00E94C101BB
:100E100020C088E061E00E94C10189E061E00E9499
:100E2000C1018AE061E00E94C1018BE061E00E94A3
:100E3000C1018CE060E00E94C1018DE061E00E9490
:100E4000C1018EE061E00E94C1018FE061E00E947B
:100E5000C10128960FB6F894DEBF0FBECDBFCF916B
:100E6000DF910895DF93CF9300D00F92CDB7DEB717
:100E70000E948E030E9436000E94380380E00E9488
:100E800091009B838A832A813B8182E390E0AC01BD
:100E9000249FC001259F900D349F900D1124892F10
:100EA000992786958695898389819AE0692F0E9482
:100EB0006F07982F82E0692F0E94D503DFCF1F9222
:100EC0000F920FB60F921124DF93CF93CDB7DEB7F9
:100ED000CF91DF910F900FBE0F901F901895991B27
:100EE00079E004C0991F961708F0961B881F7A9521
:0A0EF000C9F780950895F894FFCF2C
:00000001FF
