:100000000C942A000C943F000C943F000C943F0089
:100010000C943F000C943F000C943F000C943F0064
:100020000C943F000C943F000C943F000C943F0054
:100030000C943F000C943F000C943F000C943F0044
:100040000C943F000C943F000C943F000C943F0034
:100050000C943F0011241FBECFE5D8E0DEBFCDBF1A
:1000600011E0A0E6B0E0E8E3FDE202C005900D92E9
:10007000AA37B107D9F70E9422100C949A160C9453
:100080000000EF92FF920F931F937B018C0120E001
:1000900030E040E05FE40E941D0488238CF0C8013A
:1000A000B70120E030E040E05FE40E94B9010E9427
:1000B000DB049B01AC01205030404040504806C05A
:1000C000C801B7010E94DB049B01AC01B901CA0160
:1000D0001F910F91FF90EF900895A0E0B0E0E3E74B
:1000E000F0E00C946316DC012B01FA019C91923034
:1000F00008F439C1EB018881823008F433C19430AF
:1001000069F4843009F02FC111969C91119789816F
:10011000981709F428C1A2E7B0E025C1843009F49A
:1001200021C18230A9F4923009F01DC19A01AD01BC
:1001300088E0EA010990AE01E90109929E0181502F
:10014000C1F7E201898111969C918923818308C1BD
:10015000923009F407C112962D903C901397EB0151
:100160008A819B811496AD90BD90CD90DC901797BD
:10017000EC80FD800E811F819101281B390BB90194
:1001800037FF04C066277727621B730B6032710547
:100190000CF061C0121613066CF537014801062EEB
:1001A00004C096948794779467940A94D2F721E0D8
:1001B00030E040E050E004C0220F331F441F551FC1
:1001C0006A95D2F721503040404050402E213F21C7
:1001D00040235123211531054105510521F021E02E
:1001E00030E040E050E079018A01E628F72808294C
:1001F00019293CC0232BD1F1260E371E35014601AB
:10020000062E04C096948794779467940A94D2F744
:1002100021E030E040E050E004C0220F331F441FD3
:10022000551F6A95D2F721503040404050402A2156
:100230003B214C215D21211531054105510521F05E
:1002400021E030E040E050E059016A01A628B728DB
:10025000C828D9280BC0821593052CF01C01AA24AC
:10026000BB24650103C0EE24FF24870111969C91F5
:10027000D20111968C91981709F445C0992339F051
:10028000A80197012A193B094C095D0906C0A6017E
:1002900095012E193F09400B510B57FD08C01182E3
:1002A0003382228224833583468357831DC081E0B5
:1002B00081833382228288279927DC01821B930B5A
:1002C000A40BB50B84839583A683B7830DC0220F3F
:1002D000331F441F551F24833583468357838281F0
:1002E000938101979383828324813581468157814D
:1002F000DA01C9010197A109B1098F5F9F4FAF4F83
:10030000BF4328F30BC0918333822282EA0CFB1C8B
:100310000C1D1D1DE482F5820683178383E0808314
:10032000248135814681578157FF1AC0C901AA2708
:1003300097FDA095BA2F81709070A070B0705695FF
:10034000479537952795822B932BA42BB52B848328
:100350009583A683B7838281938101969383828359
:10036000DF0101C0D201CD01CDB7DEB7E2E10C94CF
:100370007F16A0E2B0E0EFEBF1E00C946F1669831A
:100380007A838B839C832D833E834F835887E9E058
:10039000EE2EF12CEC0EFD1ECE010196B7010E944F
:1003A000CC068E010F5E1F4FCE010596B8010E944C
:1003B000CC068A8991E089278A8BC701B801AE01F2
:1003C000475E5F4F0E946D000E94F705A096E6E031
:1003D0000C948B16A0E2B0E0E0EFF1E00C946F1605
:1003E00069837A838B839C832D833E834F835887D5
:1003F000F9E0EF2EF12CEC0EFD1ECE010196B701B7
:100400000E94CC068E010F5E1F4FCE010596B801EB
:100410000E94CC06C701B801AE01475E5F4F0E9443
:100420006D000E94F705A096E6E00C948B16A0E202
:10043000B0E0EDE1F2E00C94631669837A838B837C
:100440009C832D833E834F835887CE010196BE0146
:10045000675F7F4F0E94CC06CE010596BE016F5E9E
:100460007F4F0E94CC069985923088F0898982302E
:10047000C8F0943019F4823051F404C0843029F467
:10048000923081F482E790E0C6C0923049F420E0D7
:100490009A858A89981321E02A87CE010996BBC0E4
:1004A000823049F420E09A858A89981321E02A8BCA
:1004B000CE014196B0C02D843E844F8458886D880B
:1004C0007E888F88988CEE24FF248701AA24BB2481
:1004D000650140E050E060E070E0E0E0F0E0C10184
:1004E00081709070892BE9F0E60CF71C081D191D2E
:1004F0009A01AB012A0D3B1D4C1D5D1D80E090E073
:10050000A0E0B0E0E614F7040805190520F481E046
:1005100090E0A0E0B0E0BA01A901480F591F6A1F9E
:100520007B1FAA0CBB1CCC1CDD1C97FE08C081E005
:1005300090E0A0E0B0E0A82AB92ACA2ADB2A3196C6
:10054000E032F10549F0660C771C881C991C569422
:10055000479437942794C3CFFA85EA892B893C893D
:100560008B859C85280F391F2E5F3F4F17C0CA010E
:1005700081709070892B61F016950795F794E79438
:1005800080E090E0A0E0B0E8E82AF92A0A2B1B2BD3
:1005900076956795579547952F5F3F4F77FDE7CF46
:1005A0000CC0440F551F661F771F17FD4160EE0CEE
:1005B000FF1C001F111F21503040403090E05907B0
:1005C00090E0690790E4790760F32B8F3C8FDB01A3
:1005D000CA018F779070A070B07080349105A1052A
:1005E000B10561F447FD0AC0E114F10401051105EC
:1005F00029F0405C5F4F6F4F7F4F40781A8EFE1797
:1006000011F081E08A8F4D8F5E8F6F8F78A383E02A
:10061000898FCE0149960E94F705A096E2E10C94DD
:100620007F16A8E1B0E0E7E1F3E00C946B16698374
:100630007A838B839C832D833E834F835887B9E0D5
:10064000EB2EF12CEC0EFD1ECE010196B7010E949F
:10065000CC068E010F5E1F4FCE010596B8010E9499
:10066000CC062985223008F47EC03989323010F456
:10067000B8017CC08A859A8989278A87243011F03D
:10068000223031F4231709F06EC062E770E06EC0CB
:10069000343039F41D861E861F86188A1C861B86F8
:1006A00004C0323021F484E08987B7015FC02B8514
:1006B0003C858B899C89281B390B3C872B87ED84D3
:1006C000FE840F851889AD88BE88CF88D88CEA143F
:1006D000FB040C051D0540F4EE0CFF1C001F111F50
:1006E000215030403C872B8720E030E040E050E054
:1006F00080E090E0A0E0B0E460E070E0EA14FB0489
:100700000C051D0540F0282B392B4A2B5B2BEA18D2
:10071000FB080C091D09B695A79597958795EE0CD2
:10072000FF1C001F111F6F5F7F4F6F31710531F785
:10073000DA01C9018F779070A070B0708034910594
:10074000A105B10561F427FD0AC0E114F10401051A
:10075000110529F0205C3F4F4F4F5F4F20782D87C8
:100760003E874F87588BBE01675F7F4FCB010E944A
:10077000F7056896EAE00C948716A8E1B0E0E3EC90
:10078000F3E00C946F1669837A838B839C832D83AB
:100790003E834F83588789E0E82EF12CEC0EFD1E36
:1007A000CE010196B7010E94CC068E010F5E1F4F4D
:1007B000CE010596B8010E94CC068985823040F0B2
:1007C0008989823028F0C701B8010E94440701C01E
:1007D00081E06896E6E00C948B16A8E1B0E0E3EFC8
:1007E000F3E00C946F1669837A838B839C832D834B
:1007F0003E834F83588789E0E82EF12CEC0EFD1ED6
:10080000CE010196B7010E94CC068E010F5E1F4FEC
:10081000CE010596B8010E94CC068985823040F051
:100820008989823028F0C701B8010E94440701C0BD
:100830008FEF6896E6E00C948B16A8E1B0E0E3E257
:10084000F4E00C946F1669837A838B839C832D83E9
:100850003E834F83588789E0E82EF12CEC0EFD1E75
:10086000CE010196B7010E94CC068E010F5E1F4F8C
:10087000CE010596B8010E94CC068985823040F0F1
:100880008989823028F0C701B8010E94440701C05D
:100890008FEF6896E6E00C948B16A8E1B0E0E3E5F4
:1008A000F4E00C946F1669837A838B839C832D8389
:1008B0003E834F83588789E0E82EF12CEC0EFD1E15
:1008C000CE010196B7010E94CC068E010F5E1F4F2C
:1008D000CE010596B8010E94CC068985823040F091
:1008E0008989823028F0C701B8010E94440701C0FD
:1008F00081E06896E6E00C948B16A8E0B0E0E3E8AF
:10090000F4E00C946C169B01AC0183E08983DA015E
:10091000C9018827B7FD83959927AA27BB27B82E39
:10092000211531054105510519F482E089833AC04A
:100930008823A9F0203080E0380780E0480780E86D
:10094000580729F460E070E080E09FEC30C0EE24AE
:10095000FF248701E21AF30A040B150B02C0790188
:100960008A018EE1C82ED12CDC82CB82ED82FE8200
:100970000F831887C801B7010E94A80501971816B0
:10098000190684F4082E04C0EE0CFF1C001F111F72
:100990000A94D2F7ED82FE820F831887C81AD90A0B
:1009A000DC82CB82BA82CE0101960E94F70528969E
:1009B000E9E00C948816ACE0B0E0E1EEF4E00C94D1
:1009C000731669837A838B839C83CE010196BE0163
:1009D0006B5F7F4F0E94CC068D81823061F1823047
:1009E00050F1843021F48E81882351F12EC02F8163
:1009F000388537FD20C06E812F3131051CF066230C
:100A0000F9F023C08EE190E0821B930B29853A8593
:100A10004B855C8504C056954795379527958A95F3
:100A2000D2F76623B1F050954095309521953F4F10
:100A30004F4F5F4F0EC020E030E040E050E009C073
:100A40002FEF3FEF4FEF5FE704C020E030E040E0E2
:100A500050E8B901CA012C96E2E00C948F16A8E088
:100A6000B0E0E5E3F5E00C946B167B018C016115B9
:100A700071058105910519F482E0898360C083E0E6
:100A800089838EE1C82ED12CDC82CB82ED82FE825E
:100A90000F831887C801B7010E94A805FC01319790
:100AA000F7FF3BC0222733272E1B3F0B570168015E
:100AB000022E04C0D694C794B794A7940A94D2F790
:100AC00040E050E060E070E081E090E0A0E0B0E065
:100AD00004C0880F991FAA1FBB1F2A95D2F7019740
:100AE000A109B1098E219F21A023B1230097A1055F
:100AF000B10521F041E050E060E070E04A295B2957
:100B00006C297D294D835E836F8378878EE190E029
:100B10008E1B9F0B9C838B8312C0309781F00E2E0F
:100B200004C0EE0CFF1C001F111F0A94D2F7ED82C7
:100B3000FE820F831887CE1ADF0ADC82CB821A82EC
:100B4000CE0101960E94F7052896EAE00C948716DC
:100B5000EF92FF920F931F937B018C0180E0E816C8
:100B600080E0F80681E0080780E0180788F48FEF3E
:100B7000E816F1040105110531F028F088E090E055
:100B8000A0E0B0E017C080E090E0A0E0B0E012C0CC
:100B900080E0E81680E0F80680E0080781E01807AA
:100BA00028F088E190E0A0E0B0E004C080E190E0AF
:100BB000A0E0B0E020E230E040E050E0281B390B3C
:100BC0004A0B5B0B04C016950795F794E7948A953A
:100BD000D2F7F701E658FF4F8081281B3109410900
:100BE0005109C9011F910F91FF90EF900895DF9275
:100BF000EF92FF920F931F93FC01E480F580068132
:100C00001781D1808081823048F480E090E0A0E1BB
:100C1000B0E0E82AF92A0A2B1B2BA5C0843009F47E
:100C20009FC0823021F4EE24FF24870105C0E11427
:100C3000F1040105110519F4E0E0F0E096C06281CD
:100C400073819FEF623879070CF05BC022E83FEFB9
:100C5000261B370B2A3131052CF020E030E040E034
:100C600050E02AC0B801A701022E04C0769567950E
:100C7000579547950A94D2F781E090E0A0E0B0E064
:100C800004C0880F991FAA1FBB1F2A95D2F701978E
:100C9000A109B1098E219F21A023B1230097A105AD
:100CA000B10521F081E090E0A0E0B0E09A01AB0155
:100CB000282B392B4A2B5B2BDA01C9018F779070D7
:100CC000A070B07080349105A105B10539F427FFFB
:100CD00009C0205C3F4F4F4F5F4F04C0215C3F4F26
:100CE0004F4F5F4FE0E0F0E02030A0E03A07A0E097
:100CF0004A07A0E45A0710F0E1E0F0E079018A0128
:100D000027C06038710564F5FB01E158FF4FD80139
:100D1000C7018F779070A070B07080349105A105E5
:100D2000B10539F4E7FE0DC080E490E0A0E0B0E04A
:100D300004C08FE390E0A0E0B0E0E80EF91E0A1FC7
:100D40001B1F17FF05C016950795F794E79431967A
:100D500087E016950795F794E7948A95D1F705C033
:100D6000EE24FF248701EFEFF0E06E2F67956627F2
:100D70006795902F9F77D794DD24D7948E2F8695F3
:100D8000492F462B582F5D29B701CA011F910F919A
:100D9000FF90EF90DF900895FC01DB0140815181CD
:100DA0002281622F6F7770E0221F2227221F9381FA
:100DB000892F880F822B282F30E0991F9927991FA0
:100DC00011969C93119721153105A9F541155105EF
:100DD0006105710511F482E037C082E89FEF139638
:100DE0009C938E9312979A01AB0167E0220F331FF9
:100DF000441F551F6A95D1F783E08C930DC0220FD5
:100E0000331F441F551F12968D919C911397019784
:100E100013969C938E931297203080E0380780E0E1
:100E2000480780E4580758F314962D933D934D934B
:100E30005C93179708952F3F310579F441155105BB
:100E40006105710519F484E08C93089564FF03C073
:100E500081E08C9312C01C9210C02F573040139623
:100E60003C932E93129783E08C9387E0440F551F99
:100E7000661F771F8A95D1F7706414964D935D9322
:100E80006D937C93179708951F93DC01FB019C9150
:100E9000923008F447C08081823008F443C0943017
:100EA00051F411961C91843099F58181682F70E07E
:100EB000611B71093FC0843021F0923031F48230DF
:100EC000B9F18181882389F12DC011961C91119768
:100ED0008230F1F081811817D9F412962D913C914E
:100EE0001397828193818217930794F0281739070B
:100EF000BCF014968D919D910D90BC91A02D2481F4
:100F0000358146815781281739074A075B0718F44E
:100F1000112341F00AC082179307A407B50740F4D4
:100F2000112319F061E070E005C06FEF7FEF02C0A0
:100F300060E070E0CB011F910895DF93CF9300D064
:100F400000D000D0CDB7DEB78B836C838B818695C4
:100F5000869586958A838B81877089838A81282FDD
:100F600030E03E832D838D819E818130910509F48F
:100F700043C02D813E81223031052CF48D819E812C
:100F8000009771F0BCC02D813E812230310509F4FB
:100F90005FC08D819E818330910509F485C0AFC00B
:100FA0008C818823A9F4AAE3B0E0EAE3F0E0808131
:100FB000482F8981282F30E081E090E0022E02C086
:100FC000880F991F0A94E2F7809584238C9397C029
:100FD000AAE3B0E0EAE3F0E08081482F8981282F7E
:100FE00030E081E090E0022E02C0880F991F0A9441
:100FF000E2F7842B8C9383C08C818823A9F4A7E328
:10100000B0E0E7E3F0E08081482F8981282F30E0CD
:1010100081E090E0022E02C0880F991F0A94E2F747
:10102000809584238C936BC0A7E3B0E0E7E3F0E006
:101030008081482F8981282F30E081E090E0022EC6
:1010400002C0880F991F0A94E2F7842B8C9357C033
:101050008C818823A9F4A4E3B0E0E4E3F0E080818C
:10106000482F8981282F30E081E090E0022E02C0D5
:10107000880F991F0A94E2F7809584238C933FC0D0
:10108000A4E3B0E0E4E3F0E08081482F8981282FD9
:1010900030E081E090E0022E02C0880F991F0A9490
:1010A000E2F7842B8C932BC08C818823A9F4A1E3D5
:1010B000B0E0E1E3F0E08081482F8981282F30E023
:1010C00081E090E0022E02C0880F991F0A94E2F797
:1010D000809584238C9313C0A1E3B0E0E1E3F0E0BA
:1010E0008081482F8981282F30E081E090E0022E16
:1010F00002C0880F991F0A94E2F7842B8C932696DE
:101100000FB6F894DEBF0FBECDBFCF91DF9108952B
:10111000DF93CF9300D000D000D0CDB7DEB78B8364
:101120006C838B818695869586958A838B81877063
:1011300089838A81282F30E03E832D838D819E8193
:101140008130910509F443C02D813E812230310563
:101150002CF48D819E81009771F0BCC02D813E8161
:101160002230310509F45FC08D819E818330910565
:1011700009F485C0AFC08C818823A9F4ABE3B0E04B
:10118000EBE3F0E08081482F8981282F30E081E077
:1011900090E0022E02C0880F991F0A94E2F7809512
:1011A00084238C9397C0ABE3B0E0EBE3F0E0808165
:1011B000482F8981282F30E081E090E0022E02C084
:1011C000880F991F0A94E2F7842B8C9383C08C813B
:1011D0008823A9F4A8E3B0E0E8E3F0E08081482F99
:1011E0008981282F30E081E090E0022E02C0880F34
:1011F000991F0A94E2F7809584238C936BC0A8E32F
:10120000B0E0E8E3F0E08081482F8981282F30E0CA
:1012100081E090E0022E02C0880F991F0A94E2F745
:10122000842B8C9357C08C818823A9F4A5E3B0E06C
:10123000E5E3F0E08081482F8981282F30E081E0CC
:1012400090E0022E02C0880F991F0A94E2F7809561
:1012500084238C933FC0A5E3B0E0E5E3F0E0808118
:10126000482F8981282F30E081E090E0022E02C0D3
:10127000880F991F0A94E2F7842B8C932BC08C81E2
:101280008823A9F4A2E3B0E0E2E3F0E08081482FF4
:101290008981282F30E081E090E0022E02C0880F83
:1012A000991F0A94E2F7809584238C9313C0A2E3DC
:1012B000B0E0E2E3F0E08081482F8981282F30E020
:1012C00081E090E0022E02C0880F991F0A94E2F795
:1012D000842B8C9326960FB6F894DEBF0FBECDBF3D
:1012E000CF91DF910895DF93CF93CDB7DEB72797E6
:1012F0000FB6F894DEBF0FBECDBF8B838B81869572
:10130000869586958A838B81877089838A81282F29
:1013100030E03E832D834D815E814130510549F19E
:101320008D819E818230910534F42D813E8121157D
:10133000310561F057C04D815E814230510561F148
:101340008D819E8183309105D1F14CC0E9E3F0E0BD
:101350008081282F30E08981882F90E0A90102C088
:10136000559547958A95E2F7CA01582F51705C83CD
:101370003AC0E6E3F0E08081282F30E08981882FB1
:1013800090E0A90102C0559547958A95E2F7CA01F8
:10139000582F51705C8327C0E3E3F0E08081282F51
:1013A00030E08981882F90E0A90102C055954795CA
:1013B0008A95E2F7CA01582F51705C8314C0E0E3AC
:1013C000F0E08081282F30E08981882F90E0A9010A
:1013D00002C0559547958A95E2F7CA01582F51707A
:1013E0005C8301C002C08C818F838F8127960FB6EA
:1013F000F894DEBF0FBECDBFCF91DF910895DF938C
:10140000CF93CDB7DEB780E061E00E949D0781E019
:1014100061E00E949D0782E061E00E949D0783E0F9
:1014200061E00E949D0784E060E00E949D0785E0E6
:1014300060E00E949D0786E060E00E949D0787E0D3
:1014400060E00E949D0784E061E00E94880885E0DA
:1014500061E00E94880886E061E00E94880886E0DA
:1014600061E00E948808CF91DF910895DF93CF93C8
:101470000F92CDB7DEB780E060E00E94880881E07F
:1014800061E00E94880882E061E00E94880883E0B1
:1014900061E00E94880884E00E947309882391F427
:1014A00085E00E947309813069F486E00E94730927
:1014B000813041F487E00E947309813019F481E0A2
:1014C00089838AC184E00E947309813091F485E0A8
:1014D0000E947309882369F486E00E9473098130B1
:1014E00041F487E00E947309813019F482E0898316
:1014F00073C184E00E947309813091F485E00E94F9
:101500007309813069F486E00E947309882341F4ED
:1015100087E00E947309813019F483E089835CC1FC
:1015200084E00E947309813091F485E00E94730980
:10153000813069F486E00E947309813041F487E0CC
:101540000E947309882319F48AE0898345C180E0E9
:1015500061E00E94880881E060E00E94880882E0E3
:1015600061E00E94880883E061E00E94880884E0CE
:101570000E947309882391F485E00E9473098130E9
:1015800069F486E00E947309813041F487E00E948B
:101590007309813019F484E089831EC184E00E94BC
:1015A0007309813091F485E00E947309882369F4FE
:1015B00086E00E947309813041F487E00E9473093C
:1015C000813019F485E0898307C184E00E947309A2
:1015D000813091F485E00E947309813069F486E0DE
:1015E0000E947309882341F487E00E9473098130C7
:1015F00019F486E08983F0C084E00E947309813089
:1016000091F485E00E947309813069F486E00E94BC
:101610007309813041F487E00E947309882319F42B
:101620008BE08983D9C080E061E00E94880881E076
:1016300061E00E94880882E060E00E94880883E000
:1016400061E00E94880884E00E947309882391F475
:1016500085E00E947309813069F486E00E94730975
:10166000813041F487E00E947309813019F487E0EA
:101670008983B2C084E00E947309813091F485E0CF
:101680000E947309882369F486E00E9473098130FF
:1016900041F487E00E947309813019F488E089835E
:1016A0009BC084E00E947309813091F485E00E9420
:1016B0007309813069F486E00E947309882341F43C
:1016C00087E00E947309813019F489E0898384C01E
:1016D00084E00E947309813091F485E00E947309CF
:1016E000813069F486E00E947309813041F487E01B
:1016F0000E947309882319F48CE089836DC080E00F
:1017000061E00E94880881E061E00E94880882E030
:1017100061E00E94880883E060E00E94880884E01D
:101720000E947309882391F485E00E947309813037
:1017300069F486E00E947309813041F487E00E94D9
:101740007309813019F48FE0898346C084E00E94D8
:101750007309813089F485E00E947309882361F45C
:1017600086E00E947309813039F487E00E94730992
:10177000813011F4198230C084E00E9473098130F5
:1017800091F485E00E947309813069F486E00E943B
:101790007309882341F487E00E947309813019F4AA
:1017A0008EE0898319C084E00E947309813091F42E
:1017B00085E00E947309813069F486E00E94730914
:1017C000813041F487E00E947309882319F48DE089
:1017D000898302C08FEF898389810F90CF91DF9138
:1017E0000895DF93CF93CDB7DEB7AA970FB6F894DD
:1017F000DEBF0FBECDBF88E061E00E949D0789E09B
:1018000061E00E949D078AE061E00E949D078BE0F5
:1018100061E00E949D078BE061E00E949D078CE0E3
:1018200061E00E949D078DE061E00E949D078EE0CF
:1018300061E00E949D078FE061E00E949D0780E1CA
:1018400061E00E949D0781E161E00E949D0782E1C5
:1018500061E00E949D0788E30E94720E80E090E0A4
:10186000A0E0B0E48FA398A7A9A7BAA76FA178A515
:1018700089A59AA520E030E04AEF54E40E941702BF
:10188000DC01CB018BA39CA3ADA3BEA36BA17CA168
:101890008DA19EA120E030E040E85FE30E944D046E
:1018A00088232CF481E090E09AA389A33FC06BA128
:1018B0007CA18DA19EA120E03FEF4FE757E40E945D
:1018C000ED0318164CF56FA178A589A59AA520E01F
:1018D00030E040E251E40E941702DC01CB01BC0180
:1018E000CD010E944100DC01CB019AA389A30FC066
:1018F00088EC90E098A38F8F8F8D98A10197F1F7D6
:1019000098A38F8F89A19AA101979AA389A389A1EE
:101910009AA1009769F714C06BA17CA18DA19EA12B
:101920000E944100DC01CB019AA389A389A19AA15D
:101930009E8F8D8F8D8D9E8D0197F1F79E8F8D8F50
:101940008CE00E94720E80E090E0A0E0B0E4898F0D
:101950009A8FAB8FBC8F698D7A8D8B8D9C8D20E09B
:1019600030E04AEF54E40E941702DC01CB018D8B7A
:101970009E8BAF8BB88F6D897E898F89988D20E083
:1019800030E040E85FE30E944D0488232CF481E0BE
:1019900090E09C8B8B8B3FC06D897E898F89988D61
:1019A00020E03FEF4FE757E40E94ED0318164CF597
:1019B000698D7A8D8B8D9C8D20E030E040E251E482
:1019C0000E941702DC01CB01BC01CD010E94410045
:1019D000DC01CB019C8B8B8B0FC088EC90E09A8B49
:1019E000898B89899A890197F1F79A8B898B8B89E1
:1019F0009C8901979C8B8B8B8B899C89009769F7BD
:101A000014C06D897E898F89988D0E944100DC0108
:101A1000CB019C8B8B8B8B899C89988B8F878F8537
:101A200098890197F1F7988B8F8781E00E94720E59
:101A300080E090E0A0E0B0E48B879C87AD87BE8714
:101A40006B857C858D859E8520E030E04AEF54E4EF
:101A50000E941702DC01CB018F839887A987BA8780
:101A60006F81788589859A8520E030E040E85FE3E2
:101A70000E944D0488232CF481E090E09E838D83A6
:101A80003FC06F81788589859A8520E03FEF4FE7D9
:101A900057E40E94ED0318164CF56B857C858D8507
:101AA0009E8520E030E040E251E40E941702DC0114
:101AB000CB01BC01CD010E944100DC01CB019E8322
:101AC0008D830FC088EC90E09C838B838B819C81FD
:101AD0000197F1F79C838B838D819E8101979E8373
:101AE0008D838D819E81009769F714C06F81788501
:101AF00089859A850E944100DC01CB019E838D83FC
:101B00008D819E819A83898389819A810197F1F7DA
:101B10009A838983AA960FB6F894DEBF0FBECDBF15
:101B2000CF91DF910895DF93CF93CDB7DEB72F9795
:101B30000FB6F894DEBF0FBECDBF8F8780E161E0A6
:101B40000E94880881E160E00E94880882E161E0EB
:101B50000E9488088F85982F917088E0692F0E94D5
:101B600088088F858695982F917089E0692F0E944B
:101B700088088F8586958695982F91708AE0692FC1
:101B80000E9488088F85869586958695982F9170F6
:101B90008BE0692F0E9488088F8582958F70982F1F
:101BA00091708CE0692F0E9488088F8582958695B8
:101BB0008770982F91708DE0692F0E9488088F851B
:101BC0008295869586958370982F91708EE0692F07
:101BD0000E9488088F85982F991F9927991F8FE059
:101BE000692F0E94880880E090E0A0E0B0E48B8735
:101BF0009C87AD87BE876B857C858D859E8520E023
:101C000030E04AEF54E40E941702DC01CB018F83DD
:101C10009887A987BA876F81788589859A8520E01A
:101C200030E040E85FE30E944D0488232CF481E01B
:101C300090E09E838D833FC06F81788589859A85EA
:101C400020E03FEF4FE757E40E94ED0318164CF5F4
:101C50006B857C858D859E8520E030E040E251E4F7
:101C60000E941702DC01CB01BC01CD010E944100A2
:101C7000DC01CB019E838D830FC088EC90E09C83B8
:101C80008B838B819C810197F1F79C838B838D8162
:101C90009E8101979E838D838D819E81009769F738
:101CA00014C06F81788589859A850E944100DC0186
:101CB000CB019E838D838D819E819A8389838981C7
:101CC0009A810197F1F79A83898382E160E00E940B
:101CD00088082F960FB6F894DEBF0FBECDBFCF9108
:101CE000DF910895DF93CF93CDB7DEB72F970FB66F
:101CF000F894DEBF0FBECDBF8F8780E160E00E9409
:101D0000880881E160E00E94880882E161E00E9429
:101D100088088F85982F917088E0692F0E94880825
:101D20008F858695982F917089E0692F0E94880889
:101D30008F8586958695982F91708AE0692F0E94ED
:101D400088088F85869586958695982F91708BE06B
:101D5000692F0E9488088F8582958F70982F9170C7
:101D60008CE0692F0E9488088F8582958695877000
:101D7000982F91708DE0692F0E9488088F85829539
:101D8000869586958370982F91708EE0692F0E94BA
:101D900088088F85982F991F9927991F8FE0692FA1
:101DA0000E94880880E090E0A0E0B0E48B879C87E8
:101DB000AD87BE876B857C858D859E8520E030E074
:101DC0004AEF54E40E941702DC01CB018F8398870D
:101DD000A987BA876F81788589859A8520E030E068
:101DE00040E85FE30E944D0488232CF481E090E0FA
:101DF0009E838D833FC06F81788589859A8520E099
:101E00003FEF4FE757E40E94ED0318164CF56B8542
:101E10007C858D859E8520E030E040E251E40E9483
:101E20001702DC01CB01BC01CD010E944100DC01A5
:101E3000CB019E838D830FC088EC90E09C838B83C5
:101E40008B819C810197F1F79C838B838D819E818F
:101E500001979E838D838D819E81009769F714C0C1
:101E60006F81788589859A850E944100DC01CB01CC
:101E70009E838D838D819E819A83898389819A81B6
:101E80000197F1F79A83898382E160E00E948808D4
:101E90002F960FB6F894DEBF0FBECDBFCF91DF9166
:101EA0000895DF93CF93CDB7DEB761970FB6F8945F
:101EB000DEBF0FBECDBF998B888B1F8680C08F85FC
:101EC000282F30E088899989FC01E20FF31F808177
:101ED0000E94930D80E090E0A0E0B0E48B879C87A7
:101EE000AD87BE876B857C858D859E8520E030E043
:101EF0004AEF54E40E941702DC01CB018F839887DC
:101F0000A987BA876F81788589859A8520E030E036
:101F100040E85FE30E944D0488232CF481E090E0C8
:101F20009E838D833FC06F81788589859A8520E067
:101F30003FEF4FE757E40E94ED0318164CF56B8511
:101F40007C858D859E8520E030E040E251E40E9452
:101F50001702DC01CB01BC01CD010E944100DC0174
:101F6000CB019E838D830FC088EC90E09C838B8394
:101F70008B819C810197F1F79C838B838D819E815E
:101F800001979E838D838D819E81009769F714C090
:101F90006F81788589859A850E944100DC01CB019B
:101FA0009E838D838D819E819A83898389819A8185
:101FB0000197F1F79A8389838F858F5F8F878F854C
:101FC000282F30E088899989FC01E20FF31F808176
:101FD000882309F074CF61960FB6F894DEBF0FBE68
:101FE000CDBFCF91DF910895DF93CF9300D000D084
:101FF000CDB7DEB789836A8389818823E1F089813F
:102000008131C8F48A81282F30E03C832B838B8177
:102010009C818130910531F02B813C81223031054A
:1020200031F009C0898181580E94720E04C08981F3
:1020300081540E94720E0F900F900F900F90CF91CD
:10204000DF9108950F931F93DF93CF93CDB7DEB742
:10205000CF58D0400FB6F894DEBF0FBECDBF0E9460
:10206000FF090E94F10BFE01EF58FF4F80E090E066
:10207000A0E2B1E480839183A283B383FE01E3599C
:10208000FF4F80E090E0A0E2B1E480839183A283DF
:10209000B383FE01E959FF4F84E68083CE018B585C
:1020A0009F4FC557DF4F99838883CB58D04020E698
:1020B00030E0C357DF4F39832883CD58D04032E119
:1020C000C157DF4F3883CF58D040C357DF4FE88127
:1020D000F981CD58D0400080C357DF4F2881398126
:1020E000CD58D0402F5F3F4FC357DF4F39832883F0
:1020F000CD58D040C557DF4FE881F981CB58D0404B
:102100000082C557DF4F28813981CB58D0402F5FDF
:102110003F4FC557DF4F39832883CB58D040C15735
:10212000DF4F3881CF58D0403150C157DF4F38830F
:10213000CF58D040C157DF4F8881CF58D040882337
:1021400021F63BC00E94360A8E010F581F4F882F80
:1021500090E0A0E0B0E0BC01CD010E942F05DC01C1
:10216000CB01F80180839183A283B383FE01EF58F2
:10217000FF4F608171818281938120E030E040E2F5
:1021800051E40E944D048823C4F4FE01EF58FF4F30
:10219000608171818281938120E030E040E452E4EB
:1021A0000E94EA01DC01CB01BC01CD010E9441008B
:1021B000DC01CB010E94930D6DC0FE01EF58FF4F73
:1021C000608171818281938120E030E040E251E4BE
:1021D0000E94BD03882309F4B5CF5CC00E94360A73
:1021E000FE01E959FF4F8083FE01E959FF4F8081CD
:1021F000843608F04FC0FE01E959FF4F8081282F37
:1022000030E0C757DF4F39832883C958D040C757BC
:10221000DF4F88819981C958D0408B30910551F1A9
:10222000C757DF4FE881F981C958D040EC30F1053C
:1022300054F4C757DF4F28813981C958D0402A301C
:102240003105A1F023C0C757DF4F88819981C95854
:10225000D0408C30910591F0C757DF4FE881F9816C
:10226000C958D040ED30F10569F010C08BE20E94F2
:10227000930D3BC08DE20E94930D37C08AE20E940D
:10228000930D33C08FE20E94930D2FC08FE30E9405
:10229000930D2BC0FE01E959FF4F8081843609F46C
:1022A0009DCF23C00E94360A8E0103591F4F882FED
:1022B00090E0A0E0B0E0BC01CD010E942F05DC0160
:1022C000CB01F80180839183A283B383FE01E3599C
:1022D000FF4F608171818281938120E030E040E294
:1022E00051E40E944D0488237CF0FE01E359FF4F26
:1022F000608171818281938120E030E040E251E48D
:102300000E94BD03882371F2FE01E359FF4F6081F3
:1023100071818281938120E030E040E452E40E94A8
:10232000EA01DC01CB01BC01CD010E944100DC01CE
:10233000CB010E94930DFE01E15AFF4F80E090E037
:10234000A6E1B3E480839183A283B3838E01055A0F
:102350001F4FFE01E15AFF4F60817181828193819D
:1023600020E030E04AEF54E40E941702DC01CB0188
:10237000F80180839183A283B383FE01E55AFF4F66
:10238000608171818281938120E030E040E85FE3E9
:102390000E944D04882344F4FE01E75AFF4F81E078
:1023A00090E09183808364C0FE01E55AFF4F608115
:1023B00071818281938120E03FEF4FE757E40E94D3
:1023C000ED0318160CF043C0FE01E15AFF4F608187
:1023D00071818281938120E030E040E251E40E94EB
:1023E0001702DC01CB018E01075A1F4FBC01CD0142
:1023F0000E944100DC01CB01F801918380831FC062
:10240000FE01E95AFF4F88EC90E091838083FE0142
:10241000E95AFF4F808191810197F1F7FE01E95A56
:10242000FF4F91838083DE01A75ABF4FFE01E75A19
:10243000FF4F80819181019711969C938E93FE01AD
:10244000E75AFF4F808191810097D1F628C08E0115
:10245000075A1F4FFE01E55AFF4F6081718182814B
:1024600093810E944100DC01CB01F80191838083BC
:10247000DE01AB5ABF4FFE01E75AFF4F80819181C9
:1024800011969C938E93FE01EB5AFF4F80819181B0
:102490000197F1F7FE01EB5AFF4F91838083FE0114
:1024A000E959FF4F8081282F30E0C957DF4F39832A
:1024B0002883C758D040C957DF4F88819981C758B2
:1024C000D0408B30910509F443C0C957DF4FE881F4
:1024D000F981C758D040EC30F10554F4C957DF4FAB
:1024E00028813981C758D0402A303105B1F081C0E8
:1024F000C957DF4F88819981C758D0408C309105EA
:1025000009F441C0C957DF4FE881F981C758D0406D
:10251000ED30F10509F452C06CC08E0107591F4F10
:10252000FE01EF58FF4FDE01A359BF4F608171815B
:10253000828193812D913D914D915C910E94EA01A0
:10254000DC01CB01F80180839183A283B38356C061
:102550008E0107591F4FFE01EF58FF4FDE01A359AF
:10256000BF4F60817181828193812D913D914D9109
:102570005C910E94B901DC01CB01F8018083918359
:10258000A283B3833BC08E0107591F4FFE01EF5852
:10259000FF4FDE01A359BF4F60817181828193811A
:1025A0002D913D914D915C910E941702DC01CB0170
:1025B000F80180839183A283B38320C08E010759E1
:1025C0001F4FFE01EF58FF4FDE01A359BF4F60813F
:1025D0007181828193812D913D914D915C910E94F9
:1025E0001103DC01CB01F80180839183A283B383C3
:1025F00005C0CE018B589F4F0E94510F8E01085984
:102600001F4FFE01E759FF4F6081718182819381E5
:102610000E944100DC01CB01F8018083FE01E859F2
:10262000FF4F8081882F90E0AA2797FDA095BA2FB1
:10263000BC01CD010E947D049B01AC01FE01E75964
:10264000FF4F60817181828193810E94B901DC0119
:10265000CB018E010D591F4FBC01CD0120E030E0B0
:1026600040E251E40E941702DC01CB01F8018083B3
:102670009183A283B3838DE30E94930DFE01EF5AF1
:10268000FF4F80E090E0A0E0B0E480839183A283DC
:10269000B3838E01035B1F4FFE01EF5AFF4F608132
:1026A00071818281938120E030E04AEF54E40E94FE
:1026B0001702DC01CB01F80180839183A283B383ED
:1026C000FE01E35BFF4F608171818281938120E095
:1026D00030E040E85FE30E944D04882344F4FE01AB
:1026E000E55BFF4F81E090E09183808364C0FE0151
:1026F000E35BFF4F608171818281938120E03FEF36
:102700004FE757E40E94ED0318160CF043C0FE019A
:10271000EF5AFF4F608171818281938120E030E028
:1027200040E251E40E941702DC01CB018E01055BFF
:102730001F4FBC01CD010E944100DC01CB01F8011B
:10274000918380831FC0FE01E75BFF4F88EC90E020
:1027500091838083FE01E75BFF4F80819181019728
:10276000F1F7FE01E75BFF4F91838083DE01A55BFC
:10277000BF4FFE01E55BFF4F80819181019711966C
:102780009C938E93FE01E55BFF4F808191810097C2
:10279000D1F627C08E01055B1F4FFE01E35BFF4FA3
:1027A00060817181828193810E944100DC01CB01B3
:1027B000F80191838083DE01A95BBF4FFE01E55BD9
:1027C000FF4F808191818D939C93FE01E95BFF4FC8
:1027D000808191810197F1F7FE01E95BFF4F9183C1
:1027E0008083FE01E859FF4F8081805D0E94930D38
:1027F000FE01ED5BFF4F80E090E0A0E0B0E480835D
:102800009183A283B3838E01015C1F4FFE01ED5BB8
:10281000FF4F608171818281938120E030E04AEF37
:1028200054E40E941702DC01CB01F80180839183FC
:10283000A283B383FE01FF966081718182819381BF
:1028400020E030E040E85FE30E944D0488232CF450
:1028500081E090E09EAF8DAF46C0FE01FF966081A3
:1028600071818281938120E03FEF4FE757E40E941E
:10287000ED03181664F5FE01ED5BFF4F6081718179
:102880008281938120E030E040E251E40E9417020F
:10289000DC01CB01BC01CD010E944100DC01CB0178
:1028A0009EAF8DAF0FC088EC90E09CAF8BAF8BAD2F
:1028B0009CAD0197F1F79CAF8BAF8DAD9EAD0197AD
:1028C0009EAF8DAF8DAD9EAD009769F716C0FE012E
:1028D000FF9660817181828193810E944100DC01B9
:1028E000CB019EAF8DAF8DAD9EAD9AAF89AF89AD57
:1028F0009AAD0197F1F79AAF89AF8EE20E94930DDE
:1029000080E090E0A0E0B0E48DAB9EABAFABB8AFA1
:102910006DA97EA98FA998AD20E030E04AEF54E47C
:102920000E941702DC01CB0189AB9AABABABBCAB0D
:1029300069A97AA98BA99CA920E030E040E85FE36F
:102940000E944D0488232CF481E090E098AB8FA77F
:102950003FC069A97AA98BA99CA920E03FEF4FE766
:1029600057E40E94ED0318164CF56DA97EA98FA9B6
:1029700098AD20E030E040E251E40E941702DC0113
:10298000CB01BC01CD010E944100DC01CB0198AB21
:102990008FA70FC088EC90E09EA78DA78DA59EA560
:1029A0000197F1F79EA78DA78FA598A9019798ABDE
:1029B0008FA78FA598A9009769F714C069A97AA96C
:1029C0008BA99CA90E944100DC01CB0198AB8FA789
:1029D0008FA598A99CA78BA78BA59CA50197F1F71C
:1029E0009CA78BA7FE01ED59FF4F60817181828109
:1029F000938120E030E040E452E40E94EA01DC01EF
:102A0000CB01BC01CD010E944100DC01CB010E9441
:102A1000930D80E090E0A0E0B0E48FA398A7A9A771
:102A2000BAA76FA178A589A59AA520E030E04AEF62
:102A300054E40E941702DC01CB018BA39CA3ADA33D
:102A4000BEA36BA17CA18DA19EA120E030E040E857
:102A50005FE30E944D0488232CF481E090E09AA368
:102A600089A33FC06BA17CA18DA19EA120E03FEF77
:102A70004FE757E40E94ED0318164CF56FA178A5B7
:102A800089A59AA520E030E040E251E40E941702B7
:102A9000DC01CB01BC01CD010E944100DC01CB0176
:102AA0009AA389A30FC088EC90E098A38F8F8F8D95
:102AB00098A10197F1F798A38F8F89A19AA1019707
:102AC0009AA389A389A19AA1009769F714C06BA161
:102AD0007CA18DA19EA10E944100DC01CB019AA3A3
:102AE00089A389A19AA19E8F8D8F8D8D9E8D01972F
:102AF000F1F79E8F8D8F80E090E0AAEFB4E4898F8C
:102B00009A8FAB8FBC8F698D7A8D8B8D9C8D20E0D9
:102B100030E04AEF54E40E941702DC01CB018D8BB8
:102B20009E8BAF8BB88F6D897E898F89988D20E0C1
:102B300030E040E85FE30E944D0488232CF481E0FC
:102B400090E09C8B8B8B3FC06D897E898F89988D9F
:102B500020E03FEF4FE757E40E94ED0318164CF5D5
:102B6000698D7A8D8B8D9C8D20E030E040E251E4C0
:102B70000E941702DC01CB01BC01CD010E94410083
:102B8000DC01CB019C8B8B8B0FC088EC90E09A8B87
:102B9000898B89899A890197F1F79A8B898B8B891F
:102BA0009C8901979C8B8B8B8B899C89009769F7FB
:102BB00014C06D897E898F89988D0E944100DC0147
:102BC000CB019C8B8B8B8B899C89988B8F878F8576
:102BD00098890197F1F7988B8F8781E00E94720E98
:102BE00080E090E0AAE7B4E48B879C87AD87BE873E
:102BF0006B857C858D859E8520E030E04AEF54E42E
:102C00000E941702DC01CB018F839887A987BA87BE
:102C10006F81788589859A8520E030E040E85FE320
:102C20000E944D0488232CF481E090E09E838D83E4
:102C30003FC06F81788589859A8520E03FEF4FE717
:102C400057E40E94ED0318164CF56B857C858D8545
:102C50009E8520E030E040E251E40E941702DC0152
:102C6000CB01BC01CD010E944100DC01CB019E8360
:102C70008D830FC088EC90E09C838B838B819C813B
:102C80000197F1F79C838B838D819E8101979E83B1
:102C90008D838D819E81009769F78FCA6F817885BA
:102CA00089859A850E944100DC01CB019E838D833A
:102CB0008D819E819A83898389819A810197F1F719
:102CC0009A8389837ACA2F923F924F925F926F9232
:102CD0007F928F929F92AF92BF92CF92DF92EF92AC
:102CE000FF920F931F93CF93DF93CDB7DEB7CA1B2D
:102CF000DB0B0FB6F894DEBF0FBECDBF09942A8858
:102D0000398848885F846E847D848C849B84AA84FF
:102D1000B984C884DF80EE80FD800C811B81AA818C
:102D2000B981CE0FD11D0FB6F894DEBF0FBECDBF57
:082D3000ED010895F894FFCFB6
:102D3800556E6B6E6F776E204F7065726174696F38
:102D48006E00000000000000000000010202030302
:102D58000303040404040404040405050505050527
:102D68000505050505050505050506060606060605
:102D780006060606060606060606060606060606EB
:102D880006060606060606060606070707070707D5
:102D980007070707070707070707070707070707BB
:102DA80007070707070707070707070707070707AB
:102DB800070707070707070707070707070707079B
:102DC8000707070707070707070708080808080885
:102DD800080808080808080808080808080808086B
:102DE800080808080808080808080808080808085B
:102DF800080808080808080808080808080808084B
:102E0800080808080808080808080808080808083A
:102E1800080808080808080808080808080808082A
:102E2800080808080808080808080808080808081A
:102E3800080808080808080808080808080808080A
:0A2E48000808080808080808080830
:00000001FF
